{
  "contractName": "Transactions",
  "abi": [
    {
      "anonymous": false,
      "inputs": [
        {
          "indexed": false,
          "internalType": "address",
          "name": "from",
          "type": "address"
        },
        {
          "indexed": false,
          "internalType": "address",
          "name": "receiver",
          "type": "address"
        },
        {
          "indexed": false,
          "internalType": "uint256",
          "name": "amount",
          "type": "uint256"
        },
        {
          "indexed": false,
          "internalType": "string",
          "name": "message",
          "type": "string"
        },
        {
          "indexed": false,
          "internalType": "uint256",
          "name": "timestamp",
          "type": "uint256"
        }
      ],
      "name": "Transfer",
      "type": "event"
    },
    {
      "inputs": [
        {
          "internalType": "address",
          "name": "",
          "type": "address"
        }
      ],
      "name": "balances",
      "outputs": [
        {
          "internalType": "uint256",
          "name": "",
          "type": "uint256"
        }
      ],
      "stateMutability": "view",
      "type": "function",
      "constant": true
    },
    {
      "inputs": [
        {
          "internalType": "address payable",
          "name": "receiver",
          "type": "address"
        },
        {
          "internalType": "uint256",
          "name": "amount",
          "type": "uint256"
        },
        {
          "internalType": "string",
          "name": "message",
          "type": "string"
        }
      ],
      "name": "addToBlockchain",
      "outputs": [],
      "stateMutability": "nonpayable",
      "type": "function"
    },
    {
      "inputs": [],
      "name": "getAllTransactions",
      "outputs": [
        {
          "components": [
            {
              "internalType": "address",
              "name": "sender",
              "type": "address"
            },
            {
              "internalType": "address",
              "name": "receiver",
              "type": "address"
            },
            {
              "internalType": "uint256",
              "name": "amount",
              "type": "uint256"
            },
            {
              "internalType": "string",
              "name": "message",
              "type": "string"
            },
            {
              "internalType": "uint256",
              "name": "timestamp",
              "type": "uint256"
            }
          ],
          "internalType": "struct Transactions.TransferStruct[]",
          "name": "",
          "type": "tuple[]"
        }
      ],
      "stateMutability": "view",
      "type": "function",
      "constant": true
    },
    {
      "inputs": [],
      "name": "getTransactionCount",
      "outputs": [
        {
          "internalType": "uint256",
          "name": "",
          "type": "uint256"
        }
      ],
      "stateMutability": "view",
      "type": "function",
      "constant": true
    },
    {
      "inputs": [
        {
          "internalType": "address",
          "name": "user",
          "type": "address"
        },
        {
          "internalType": "uint256",
          "name": "amount",
          "type": "uint256"
        }
      ],
      "name": "setBalance",
      "outputs": [],
      "stateMutability": "nonpayable",
      "type": "function"
    },
    {
      "inputs": [
        {
          "internalType": "address",
          "name": "account",
          "type": "address"
        }
      ],
      "name": "balanceOf",
      "outputs": [
        {
          "internalType": "uint256",
          "name": "",
          "type": "uint256"
        }
      ],
      "stateMutability": "view",
      "type": "function",
      "constant": true
    }
  ],
  "bytecode": "0x608060405234801561001057600080fd5b50610f0b806100206000396000f3fe608060405234801561001057600080fd5b50600436106100625760003560e01c806327506f531461006757806327e235e3146100855780632e7700f0146100b557806370a08231146100d3578063e30443bc14610103578063eb12da4a1461011f575b600080fd5b61006f61013b565b60405161007c9190610936565b60405180910390f35b61009f600480360381019061009a9190610998565b6102ec565b6040516100ac91906109d4565b60405180910390f35b6100bd610304565b6040516100ca91906109d4565b60405180910390f35b6100ed60048036038101906100e89190610998565b61030d565b6040516100fa91906109d4565b60405180910390f35b61011d60048036038101906101189190610a1b565b610356565b005b61013960048036038101906101349190610bce565b61039e565b005b60606002805480602002602001604051908101604052809291908181526020016000905b828210156102e357838290600052602060002090600502016040518060a00160405290816000820160009054906101000a900473ffffffffffffffffffffffffffffffffffffffff1673ffffffffffffffffffffffffffffffffffffffff1673ffffffffffffffffffffffffffffffffffffffff1681526020016001820160009054906101000a900473ffffffffffffffffffffffffffffffffffffffff1673ffffffffffffffffffffffffffffffffffffffff1673ffffffffffffffffffffffffffffffffffffffff1681526020016002820154815260200160038201805461024890610c6c565b80601f016020809104026020016040519081016040528092919081815260200182805461027490610c6c565b80156102c15780601f10610296576101008083540402835291602001916102c1565b820191906000526020600020905b8154815290600101906020018083116102a457829003601f168201915b505050505081526020016004820154815250508152602001906001019061015f565b50505050905090565b60016020528060005260406000206000915090505481565b60008054905090565b6000600160008373ffffffffffffffffffffffffffffffffffffffff1673ffffffffffffffffffffffffffffffffffffffff168152602001908152602001600020549050919050565b80600160008473ffffffffffffffffffffffffffffffffffffffff1673ffffffffffffffffffffffffffffffffffffffff168152602001908152602001600020819055505050565b81600160003373ffffffffffffffffffffffffffffffffffffffff1673ffffffffffffffffffffffffffffffffffffffff168152602001908152602001600020541015610420576040517f08c379a000000000000000000000000000000000000000000000000000000000815260040161041790610cfb565b60405180910390fd5b81600160003373ffffffffffffffffffffffffffffffffffffffff1673ffffffffffffffffffffffffffffffffffffffff168152602001908152602001600020600082825461046f9190610d4a565b9250508190555081600160008573ffffffffffffffffffffffffffffffffffffffff1673ffffffffffffffffffffffffffffffffffffffff16815260200190815260200160002060008282546104c59190610d7e565b9250508190555060016000808282546104de9190610d7e565b9250508190555060026040518060a001604052803373ffffffffffffffffffffffffffffffffffffffff1681526020018573ffffffffffffffffffffffffffffffffffffffff16815260200184815260200183815260200142815250908060018154018082558091505060019003906000526020600020906005020160009091909190915060008201518160000160006101000a81548173ffffffffffffffffffffffffffffffffffffffff021916908373ffffffffffffffffffffffffffffffffffffffff16021790555060208201518160010160006101000a81548173ffffffffffffffffffffffffffffffffffffffff021916908373ffffffffffffffffffffffffffffffffffffffff160217905550604082015181600201556060820151816003019080519060200190610617929190610668565b506080820151816004015550507fc4b32d7ff75a51e487f3cbb5d3202f2efecca1f4c2b987e0039c1d3220b48a83338484844260405161065b959493929190610e7b565b60405180910390a1505050565b82805461067490610c6c565b90600052602060002090601f01602090048101928261069657600085556106dd565b82601f106106af57805160ff19168380011785556106dd565b828001600101855582156106dd579182015b828111156106dc5782518255916020019190600101906106c1565b5b5090506106ea91906106ee565b5090565b5b808211156107075760008160009055506001016106ef565b5090565b600081519050919050565b600082825260208201905092915050565b6000819050602082019050919050565b600073ffffffffffffffffffffffffffffffffffffffff82169050919050565b600061076282610737565b9050919050565b61077281610757565b82525050565b6000819050919050565b61078b81610778565b82525050565b600081519050919050565b600082825260208201905092915050565b60005b838110156107cb5780820151818401526020810190506107b0565b838111156107da576000848401525b50505050565b6000601f19601f8301169050919050565b60006107fc82610791565b610806818561079c565b93506108168185602086016107ad565b61081f816107e0565b840191505092915050565b600060a0830160008301516108426000860182610769565b5060208301516108556020860182610769565b5060408301516108686040860182610782565b506060830151848203606086015261088082826107f1565b91505060808301516108956080860182610782565b508091505092915050565b60006108ac838361082a565b905092915050565b6000602082019050919050565b60006108cc8261070b565b6108d68185610716565b9350836020820285016108e885610727565b8060005b85811015610924578484038952815161090585826108a0565b9450610910836108b4565b925060208a019950506001810190506108ec565b50829750879550505050505092915050565b6000602082019050818103600083015261095081846108c1565b905092915050565b6000604051905090565b600080fd5b600080fd5b61097581610757565b811461098057600080fd5b50565b6000813590506109928161096c565b92915050565b6000602082840312156109ae576109ad610962565b5b60006109bc84828501610983565b91505092915050565b6109ce81610778565b82525050565b60006020820190506109e960008301846109c5565b92915050565b6109f881610778565b8114610a0357600080fd5b50565b600081359050610a15816109ef565b92915050565b60008060408385031215610a3257610a31610962565b5b6000610a4085828601610983565b9250506020610a5185828601610a06565b9150509250929050565b6000610a6682610737565b9050919050565b610a7681610a5b565b8114610a8157600080fd5b50565b600081359050610a9381610a6d565b92915050565b600080fd5b600080fd5b7f4e487b7100000000000000000000000000000000000000000000000000000000600052604160045260246000fd5b610adb826107e0565b810181811067ffffffffffffffff82111715610afa57610af9610aa3565b5b80604052505050565b6000610b0d610958565b9050610b198282610ad2565b919050565b600067ffffffffffffffff821115610b3957610b38610aa3565b5b610b42826107e0565b9050602081019050919050565b82818337600083830152505050565b6000610b71610b6c84610b1e565b610b03565b905082815260208101848484011115610b8d57610b8c610a9e565b5b610b98848285610b4f565b509392505050565b600082601f830112610bb557610bb4610a99565b5b8135610bc5848260208601610b5e565b91505092915050565b600080600060608486031215610be757610be6610962565b5b6000610bf586828701610a84565b9350506020610c0686828701610a06565b925050604084013567ffffffffffffffff811115610c2757610c26610967565b5b610c3386828701610ba0565b9150509250925092565b7f4e487b7100000000000000000000000000000000000000000000000000000000600052602260045260246000fd5b60006002820490506001821680610c8457607f821691505b60208210811415610c9857610c97610c3d565b5b50919050565b600082825260208201905092915050565b7f496e73756666696369656e742062616c616e6365000000000000000000000000600082015250565b6000610ce5601483610c9e565b9150610cf082610caf565b602082019050919050565b60006020820190508181036000830152610d1481610cd8565b9050919050565b7f4e487b7100000000000000000000000000000000000000000000000000000000600052601160045260246000fd5b6000610d5582610778565b9150610d6083610778565b925082821015610d7357610d72610d1b565b5b828203905092915050565b6000610d8982610778565b9150610d9483610778565b9250827fffffffffffffffffffffffffffffffffffffffffffffffffffffffffffffffff03821115610dc957610dc8610d1b565b5b828201905092915050565b610ddd81610757565b82525050565b6000819050919050565b6000610e08610e03610dfe84610737565b610de3565b610737565b9050919050565b6000610e1a82610ded565b9050919050565b6000610e2c82610e0f565b9050919050565b610e3c81610e21565b82525050565b6000610e4d82610791565b610e578185610c9e565b9350610e678185602086016107ad565b610e70816107e0565b840191505092915050565b600060a082019050610e906000830188610dd4565b610e9d6020830187610e33565b610eaa60408301866109c5565b8181036060830152610ebc8185610e42565b9050610ecb60808301846109c5565b969550505050505056fea2646970667358221220d8a898b1a744ed43cacfaf9b22e68ce2c9c1f4df72d99fa0f195d66429bf8c6464736f6c634300080c0033",
  "immutableReferences": {},
  "source": "// SPDX-License-Identifier: Unlicense\n\npragma solidity ^0.8.12;\n\ncontract Transactions {\n    uint256 transactionCount;\n    \n    // Mapping to store user balances\n    mapping(address => uint256) public balances;\n\n    event Transfer(address from, address receiver, uint amount, string message, uint256 timestamp);\n\n    struct TransferStruct {\n        address sender;\n        address receiver;\n        uint amount;\n        string message;\n        uint256 timestamp;\n    }\n\n    TransferStruct[] transactions;\n\n    // Function to add a transaction and transfer tokens\n    function addToBlockchain(address payable receiver, uint amount, string memory message) public {\n        require(balances[msg.sender] >= amount, \"Insufficient balance\"); // Ensure sender has enough balance\n\n        // Update balances\n        balances[msg.sender] -= amount;\n        balances[receiver] += amount;\n\n        transactionCount += 1;\n        transactions.push(TransferStruct(msg.sender, receiver, amount, message, block.timestamp));\n\n        // Emit event for the transaction\n        emit Transfer(msg.sender, receiver, amount, message, block.timestamp);\n    }\n\n    // Function to get all transactions\n    function getAllTransactions() public view returns (TransferStruct[] memory) {\n        return transactions;\n    }\n\n    // Function to get the transaction count\n    function getTransactionCount() public view returns (uint256) {\n        return transactionCount;\n    }\n\n    // Function to set an initial balance for a user (could be used for testing)\n    function setBalance(address user, uint256 amount) public {\n        balances[user] = amount;\n    }\n\n    // Function to check the balance of an address\n    function balanceOf(address account) public view returns (uint256) {\n        return balances[account];\n    }\n}\n",
  "sourcePath": "C:\\Users\\MANOJ\\Downloads\\Decentralized-Payment-system-master\\Decentralized-Payment-system-master\\smartContracts\\contracts\\Transactions.sol",
  "compiler": {
    "name": "solc",
    "version": "0.8.12+commit.f00d7308.Emscripten.clang"
  },
  "schemaVersion": "3.4.16",
  "updatedAt": "2024-11-19T01:56:49.356Z",
  "networkType": "ethereum",
  "devdoc": {
    "kind": "dev",
    "methods": {},
    "version": 1
  },
  "userdoc": {
    "kind": "user",
    "methods": {},
    "version": 1
  }
}